{
  "contractName": "BackupContract",
  "abi": [
    {
      "anonymous": false,
      "inputs": [
        {
          "indexed": false,
          "name": "code",
          "type": "int256"
        },
        {
          "indexed": false,
          "name": "msg",
          "type": "string"
        }
      ],
      "name": "postEvent",
      "type": "event",
      "signature": "0xa14cb6bf3887233ddcd4ee8ca808e1ed6192fbdb0f652d0fc849f2d520ef8ba4"
    },
    {
      "anonymous": false,
      "inputs": [
        {
          "indexed": false,
          "name": "code",
          "type": "int256"
        },
        {
          "indexed": false,
          "name": "msg",
          "type": "string"
        }
      ],
      "name": "requestEvent",
      "type": "event",
      "signature": "0xe2c107207f2f3f93d8362450176cecf291dd26d92edb6e9c9f00f505e1cd069e"
    },
    {
      "constant": false,
      "inputs": [
        {
          "name": "fileHash",
          "type": "string"
        }
      ],
      "name": "postBackupOrder",
      "outputs": [
        {
          "name": "",
          "type": "int256"
        },
        {
          "name": "",
          "type": "string"
        }
      ],
      "payable": false,
      "stateMutability": "nonpayable",
      "type": "function",
      "signature": "0x57b4639a"
    },
    {
      "constant": false,
      "inputs": [],
      "name": "requestBackup",
      "outputs": [
        {
          "name": "",
          "type": "int256"
        },
        {
          "name": "",
          "type": "string"
        }
      ],
      "payable": false,
      "stateMutability": "nonpayable",
      "type": "function",
      "signature": "0x85d1d4bd"
    }
  ],
  "bytecode": "0x608060405234801561001057600080fd5b50610dd4806100206000396000f3fe60806040526004361061004c576000357c0100000000000000000000000000000000000000000000000000000000900463ffffffff16806357b4639a1461005157806385d1d4bd14610199575b600080fd5b34801561005d57600080fd5b506101176004803603602081101561007457600080fd5b810190808035906020019064010000000081111561009157600080fd5b8201836020820111156100a357600080fd5b803590602001918460018302840111640100000000831117156100c557600080fd5b91908080601f016020809104026020016040519081016040528093929190818152602001838380828437600081840152601f19601f820116905080830192505050505050509192919290505050610230565b6040518083815260200180602001828103825283818151815260200191508051906020019080838360005b8381101561015d578082015181840152602081019050610142565b50505050905090810190601f16801561018a5780820380516001836020036101000a031916815260200191505b50935050505060405180910390f35b3480156101a557600080fd5b506101ae61055f565b6040518083815260200180602001828103825283818151815260200191508051906020019080838360005b838110156101f45780820151818401526020810190506101d9565b50505050905090810190601f1680156102215780820380516001836020036101000a031916815260200191505b50935050505060405180910390f35b6000606060006001846040518082805190602001908083835b60208310151561026e5780518252602082019150602081019050602083039250610249565b6001836020036101000a0380198251168184511680821785525050505050509050019150509081526020016040518091039020805490501115610362577fa14cb6bf3887233ddcd4ee8ca808e1ed6192fbdb0f652d0fc849f2d520ef8ba46101f460405180828152602001806020018281038252601e8152602001807f66696c6520726564756e64616e637920616c72656164792065786973747300008152506020019250505060405180910390a16101f48090506040805190810160405280601e81526020017f66696c6520726564756e64616e637920616c72656164792065786973747300008152509150915061055a565b6000339050606060046040519080825280602002602001820160405280156103995781602001602082028038833980820191505090505b509050818160008151811015156103ac57fe5b9060200190602002019073ffffffffffffffffffffffffffffffffffffffff16908173ffffffffffffffffffffffffffffffffffffffff1681525050806001866040518082805190602001908083835b60208310151561042157805182526020820191506020810190506020830392506103fc565b6001836020036101000a03801982511681845116808217855250505050505090500191505090815260200160405180910390209080519060200190610467929190610b0f565b5060008590806001815401808255809150509060018203906000526020600020016000909192909190915090805190602001906104a5929190610b99565b50507fa14cb6bf3887233ddcd4ee8ca808e1ed6192fbdb0f652d0fc849f2d520ef8ba460c86040518082815260200180602001828103825260078152602001807f73756363657373000000000000000000000000000000000000000000000000008152506020019250505060405180910390a160c88090506040805190810160405280600781526020017f73756363657373000000000000000000000000000000000000000000000000008152509350935050505b915091565b60006060600033905060008090505b60008054905081101561098757606060008281548110151561058c57fe5b906000526020600020018054600181600116156101000203166002900480601f01602080910402602001604051908101604052809291908181526020018280546001816001161561010002031660029004801561062a5780601f106105ff5761010080835404028352916020019161062a565b820191906000526020600020905b81548152906001019060200180831161060d57829003601f168201915b5050505050905060606001826040518082805190602001908083835b60208310151561066b5780518252602082019150602081019050602083039250610646565b6001836020036101000a038019825116818451168082178552505050505050905001915050908152602001604051809103902080548060200260200160405190810160405280929190818152602001828054801561071e57602002820191906000526020600020905b8160009054906101000a900473ffffffffffffffffffffffffffffffffffffffff1673ffffffffffffffffffffffffffffffffffffffff16815260200190600101908083116106d4575b5050505050905060008090505b8151811015610977578473ffffffffffffffffffffffffffffffffffffffff16828281518110151561075957fe5b9060200190602002015173ffffffffffffffffffffffffffffffffffffffff16141561078457610977565b600073ffffffffffffffffffffffffffffffffffffffff1682828151811015156107aa57fe5b9060200190602002015173ffffffffffffffffffffffffffffffffffffffff16141561096a573382828151811015156107df57fe5b9060200190602002019073ffffffffffffffffffffffffffffffffffffffff16908173ffffffffffffffffffffffffffffffffffffffff1681525050816001846040518082805190602001908083835b602083101515610854578051825260208201915060208101905060208303925061082f565b6001836020036101000a0380198251168184511680821785525050505050509050019150509081526020016040518091039020908051906020019061089a929190610b0f565b5060046001820114156108b1576108b084610a40565b5b7fe2c107207f2f3f93d8362450176cecf291dd26d92edb6e9c9f00f505e1cd069e60c8846040518083815260200180602001828103825283818151815260200191508051906020019080838360005b8381101561091b578082015181840152602081019050610900565b50505050905090810190601f1680156109485780820380516001836020036101000a031916815260200191505b50935050505060405180910390a160c883819150965096505050505050610a3c565b808060010191505061072b565b505050808060010191505061056e565b507fe2c107207f2f3f93d8362450176cecf291dd26d92edb6e9c9f00f505e1cd069e6101f46040518082815260200180602001828103825260178152602001807f6e6f207375697461626c65206f7264657220666f756e640000000000000000008152506020019250505060405180910390a16101f48090506040805190810160405280601781526020017f6e6f207375697461626c65206f7264657220666f756e6400000000000000000081525092509250505b9091565b6000808054905090508082101515610a585750610b0c565b60008290505b60018203811015610acb57600060018201815481101515610a7b57fe5b90600052602060002001600082815481101515610a9457fe5b906000526020600020019080546001816001161561010002031660029004610abd929190610c19565b508080600101915050610a5e565b50600060018203815481101515610ade57fe5b906000526020600020016000610af49190610ca0565b6000805480919060019003610b099190610ce8565b50505b50565b828054828255906000526020600020908101928215610b88579160200282015b82811115610b875782518260006101000a81548173ffffffffffffffffffffffffffffffffffffffff021916908373ffffffffffffffffffffffffffffffffffffffff16021790555091602001919060010190610b2f565b5b509050610b959190610d14565b5090565b828054600181600116156101000203166002900490600052602060002090601f016020900481019282601f10610bda57805160ff1916838001178555610c08565b82800160010185558215610c08579182015b82811115610c07578251825591602001919060010190610bec565b5b509050610c159190610d57565b5090565b828054600181600116156101000203166002900490600052602060002090601f016020900481019282601f10610c525780548555610c8f565b82800160010185558215610c8f57600052602060002091601f016020900482015b82811115610c8e578254825591600101919060010190610c73565b5b509050610c9c9190610d57565b5090565b50805460018160011615610100020316600290046000825580601f10610cc65750610ce5565b601f016020900490600052602060002090810190610ce49190610d57565b5b50565b815481835581811115610d0f57818360005260206000209182019101610d0e9190610d7c565b5b505050565b610d5491905b80821115610d5057600081816101000a81549073ffffffffffffffffffffffffffffffffffffffff021916905550600101610d1a565b5090565b90565b610d7991905b80821115610d75576000816000905550600101610d5d565b5090565b90565b610da591905b80821115610da15760008181610d989190610ca0565b50600101610d82565b5090565b9056fea165627a7a72305820e144983cdb8092c9d48809c78a4de26372424c8e894f8990e9b265a3224d84140029",
  "source": "pragma solidity ^0.5.0;\ncontract BackupContract {\n    \n    \n    uint256 constant redundancy_num = 4;\n    \n    string[] backupOrderList;\n    \n    mapping(string => address[]) file_redundancy_map;\n    \n    event postEvent(int code, string msg);\n    event requestEvent(int code, string msg);\n    \n    function postBackupOrder(string memory fileHash) public returns (int, string memory){\n        if(file_redundancy_map[fileHash].length>0){\n            emit postEvent(500,\"file redundancy already exists\");\n            return (500,\"file redundancy already exists\");\n        }else{\n            address req_node_addr = msg.sender;\n            address[] memory addressList = new address[](redundancy_num);\n            addressList[0] = req_node_addr;\n            file_redundancy_map[fileHash] = addressList;\n            backupOrderList.push(fileHash);\n            emit postEvent(200,\"success\");\n            return (200,\"success\");\n        }\n    }\n    \n    function requestBackup() public returns (int, string memory){\n        address req_node_addr = msg.sender;\n        for(uint i=0;i<backupOrderList.length;i++){\n            string memory fileHash = backupOrderList[i];\n            address[] memory addressList = file_redundancy_map[fileHash];\n            for(uint j=0;j<addressList.length;j++){\n                if(addressList[j]==req_node_addr){\n                    break;\n                }else if(addressList[j]==address(0)){\n                    addressList[j] = msg.sender;\n                    file_redundancy_map[fileHash] = addressList;\n                    if(j+1==redundancy_num){\n                        deleteStrAt(i);\n                    }\n                    emit requestEvent(200,fileHash);\n                    return (200,fileHash);\n                }\n            }\n        }\n        emit requestEvent(500,\"no suitable order found\");\n        return (500,\"no suitable order found\");\n    }\n    \n    function deleteStrAt(uint index) private{\n        uint len = backupOrderList.length;\n        if (index >= len) return;\n        for (uint i = index; i<len-1; i++) {\n            backupOrderList[i] = backupOrderList[i+1];\n        }\n        \n        delete backupOrderList[len-1];\n        backupOrderList.length--;\n    }\n}",
  "sourcePath": "/Users/jackie/workspace/scau_file_system/contracts/BackupContract.sol",
  "compiler": {
    "name": "solc",
    "version": "0.5.0+commit.1d4f565a.Emscripten.clang"
  },
  "schemaVersion": "3.0.1",
  "updatedAt": "2019-03-01T14:09:47.200Z",
  "devdoc": {
    "methods": {}
  },
  "userdoc": {
    "methods": {}
  }
}