{
  "contractName": "FileSystem",
  "abi": [
    {
      "constant": true,
      "inputs": [
        {
          "name": "account",
          "type": "string"
        }
      ],
      "name": "isAccountExist",
      "outputs": [
        {
          "name": "",
          "type": "bool"
        }
      ],
      "payable": false,
      "stateMutability": "view",
      "type": "function",
      "signature": "0x149d2965"
    },
    {
      "constant": false,
      "inputs": [
        {
          "name": "account",
          "type": "string"
        },
        {
          "name": "password",
          "type": "string"
        },
        {
          "name": "file_data",
          "type": "string"
        }
      ],
      "name": "register",
      "outputs": [
        {
          "name": "",
          "type": "int256"
        },
        {
          "name": "",
          "type": "string"
        }
      ],
      "payable": false,
      "stateMutability": "nonpayable",
      "type": "function",
      "signature": "0x4cd08d03"
    },
    {
      "constant": true,
      "inputs": [
        {
          "name": "account",
          "type": "string"
        }
      ],
      "name": "login",
      "outputs": [
        {
          "name": "",
          "type": "int256"
        },
        {
          "name": "",
          "type": "string"
        }
      ],
      "payable": false,
      "stateMutability": "view",
      "type": "function",
      "signature": "0x3a7d280c"
    },
    {
      "constant": false,
      "inputs": [
        {
          "name": "account",
          "type": "string"
        },
        {
          "name": "password",
          "type": "string"
        },
        {
          "name": "file_data",
          "type": "string"
        }
      ],
      "name": "update",
      "outputs": [
        {
          "name": "",
          "type": "int256"
        },
        {
          "name": "",
          "type": "string"
        }
      ],
      "payable": false,
      "stateMutability": "nonpayable",
      "type": "function",
      "signature": "0x31c3e456"
    }
  ],
  "bytecode": "0x608060405234801561001057600080fd5b50610e5d806100206000396000f3fe608060405260043610610062576000357c0100000000000000000000000000000000000000000000000000000000900463ffffffff168063149d29651461006757806331c3e456146101475780633a7d280c146103bd5780634cd08d0314610505575b600080fd5b34801561007357600080fd5b5061012d6004803603602081101561008a57600080fd5b81019080803590602001906401000000008111156100a757600080fd5b8201836020820111156100b957600080fd5b803590602001918460018302840111640100000000831117156100db57600080fd5b91908080601f016020809104026020016040519081016040528093929190818152602001838380828437600081840152601f19601f82011690508083019250505050505050919291929050505061077b565b604051808215151515815260200191505060405180910390f35b34801561015357600080fd5b5061033b6004803603606081101561016a57600080fd5b810190808035906020019064010000000081111561018757600080fd5b82018360208201111561019957600080fd5b803590602001918460018302840111640100000000831117156101bb57600080fd5b91908080601f016020809104026020016040519081016040528093929190818152602001838380828437600081840152601f19601f8201169050808301925050505050505091929192908035906020019064010000000081111561021e57600080fd5b82018360208201111561023057600080fd5b8035906020019184600183028401116401000000008311171561025257600080fd5b91908080601f016020809104026020016040519081016040528093929190818152602001838380828437600081840152601f19601f820116905080830192505050505050509192919290803590602001906401000000008111156102b557600080fd5b8201836020820111156102c757600080fd5b803590602001918460018302840111640100000000831117156102e957600080fd5b91908080601f016020809104026020016040519081016040528093929190818152602001838380828437600081840152601f19601f8201169050808301925050505050505091929192905050506108a4565b6040518083815260200180602001828103825283818151815260200191508051906020019080838360005b83811015610381578082015181840152602081019050610366565b50505050905090810190601f1680156103ae5780820380516001836020036101000a031916815260200191505b50935050505060405180910390f35b3480156103c957600080fd5b50610483600480360360208110156103e057600080fd5b81019080803590602001906401000000008111156103fd57600080fd5b82018360208201111561040f57600080fd5b8035906020019184600183028401116401000000008311171561043157600080fd5b91908080601f016020809104026020016040519081016040528093929190818152602001838380828437600081840152601f19601f820116905080830192505050505050509192919290505050610ad4565b6040518083815260200180602001828103825283818151815260200191508051906020019080838360005b838110156104c95780820151818401526020810190506104ae565b50505050905090810190601f1680156104f65780820380516001836020036101000a031916815260200191505b50935050505060405180910390f35b34801561051157600080fd5b506106f96004803603606081101561052857600080fd5b810190808035906020019064010000000081111561054557600080fd5b82018360208201111561055757600080fd5b8035906020019184600183028401116401000000008311171561057957600080fd5b91908080601f016020809104026020016040519081016040528093929190818152602001838380828437600081840152601f19601f820116905080830192505050505050509192919290803590602001906401000000008111156105dc57600080fd5b8201836020820111156105ee57600080fd5b8035906020019184600183028401116401000000008311171561061057600080fd5b91908080601f016020809104026020016040519081016040528093929190818152602001838380828437600081840152601f19601f8201169050808301925050505050505091929192908035906020019064010000000081111561067357600080fd5b82018360208201111561068557600080fd5b803590602001918460018302840111640100000000831117156106a757600080fd5b91908080601f016020809104026020016040519081016040528093929190818152602001838380828437600081840152601f19601f820116905080830192505050505050509192919290505050610bed565b6040518083815260200180602001828103825283818151815260200191508051906020019080838360005b8381101561073f578082015181840152602081019050610724565b50505050905090810190601f16801561076c5780820380516001836020036101000a031916815260200191505b50935050505060405180910390f35b600060606000836040518082805190602001908083835b6020831015156107b75780518252602082019150602081019050602083039250610792565b6001836020036101000a03801982511681845116808217855250505050505090500191505090815260200160405180910390208054600181600116156101000203166002900480601f01602080910402602001604051908101604052809291908181526020018280546001816001161561010002031660029004801561087e5780601f106108535761010080835404028352916020019161087e565b820191906000526020600020905b81548152906001019060200180831161086157829003601f168201915b5050505050905060008151111561089957600191505061089f565b60009150505b919050565b60006060806001866040518082805190602001908083835b6020831015156108e157805182526020820191506020810190506020830392506108bc565b6001836020036101000a03801982511681845116808217855250505050505090500191505090815260200160405180910390208054600181600116156101000203166002900480601f0160208091040260200160405190810160405280929190818152602001828054600181600116156101000203166002900480156109a85780601f1061097d576101008083540402835291602001916109a8565b820191906000526020600020905b81548152906001019060200180831161098b57829003601f168201915b50505050509050848051906020012081805190602001201415610a8a57836000876040518082805190602001908083835b6020831015156109fe57805182526020820191506020810190506020830392506109d9565b6001836020036101000a03801982511681845116808217855250505050505090500191505090815260200160405180910390209080519060200190610a44929190610d8c565b5060c88090506040805190810160405280600c81526020017fe69bb4e696b0e68890e58a9f00000000000000000000000000000000000000008152509250925050610acc565b6101f48090506040805190810160405280600c81526020017fe5af86e7a081e99499e8afaf000000000000000000000000000000000000000081525092509250505b935093915050565b6000606060c86000846040518082805190602001908083835b602083101515610b125780518252602082019150602081019050602083039250610aed565b6001836020036101000a0380198251168184511680821785525050505050509050019150509081526020016040518091039020819150808054600181600116156101000203166002900480601f016020809104026020016040519081016040528092919081815260200182805460018160011615610100020316600290048015610bdd5780601f10610bb257610100808354040283529160200191610bdd565b820191906000526020600020905b815481529060010190602001808311610bc057829003601f168201915b5050505050905091509150915091565b60006060610bfa8561077b565b15610c44576101f48090506040805190810160405280600f81526020017fe8b4a6e58fb7e5b7b2e5ad98e59ca8000000000000000000000000000000000081525091509150610d84565b836001866040518082805190602001908083835b602083101515610c7d5780518252602082019150602081019050602083039250610c58565b6001836020036101000a03801982511681845116808217855250505050505090500191505090815260200160405180910390209080519060200190610cc3929190610d8c565b50826000866040518082805190602001908083835b602083101515610cfd5780518252602082019150602081019050602083039250610cd8565b6001836020036101000a03801982511681845116808217855250505050505090500191505090815260200160405180910390209080519060200190610d43929190610d8c565b5060c88090506040805190810160405280600c81526020017fe6b3a8e5868ce68890e58a9f0000000000000000000000000000000000000000815250915091505b935093915050565b828054600181600116156101000203166002900490600052602060002090601f016020900481019282601f10610dcd57805160ff1916838001178555610dfb565b82800160010185558215610dfb579182015b82811115610dfa578251825591602001919060010190610ddf565b5b509050610e089190610e0c565b5090565b610e2e91905b80821115610e2a576000816000905550600101610e12565b5090565b9056fea165627a7a72305820caf9ab2b90224f0a245b3b9ddc9364d7565e60c0dde47bb571b58c007bea60430029",
  "source": "pragma solidity ^0.5.0;\ncontract FileSystem {\n\n    //账户->文件树密文(使用密码可逆加密的字符串)\n    mapping(string => string) private user_data_map;\n    //账户->密码MD5\n    mapping(string => string) private user_pwd_map;\n\n\n    /* \n     * 方法：判断账号是否存在\n     * 参数：账号(string)\n     * 返回值： true|false\n     */\n    function isAccountExist(string memory account) view public returns(bool){\n        string memory value = user_data_map[account];\n        if(bytes(value).length>0){\n            return true;\n        }else{\n            return false;\n        }\n    }\n    \n    /*\n     * 方法：注册\n     * 参数：账号(string)、密码(string)\n     */\n    function register(string memory account, string memory password, string memory file_data) public returns(int,string memory){\n        if(isAccountExist(account)){\n            return (500,\"账号已存在\");\n        }else{\n            //TODO 注册账号格式校验\n            user_pwd_map[account] = password;\n            user_data_map[account] = file_data;\n            return (200,\"注册成功\");\n        }\n    }\n    \n    /*\n     * 方法：登录\n     * 参数：账号、密码\n     * 返回值：DES加密的 文件树字符串\n     */\n     function login(string memory account) public view returns(int,string memory){\n         return (200,user_data_map[account]);\n     }\n\n     /*\n      * 方法：更新\n      *\n      */\n      function update(string memory account, string memory password, string memory file_data) public returns(int, string memory){\n          string memory pwd = user_pwd_map[account];\n          if(keccak256(bytes(pwd))==keccak256(bytes(password))){\n              user_data_map[account] = file_data;\n              return (200,\"更新成功\");\n          }else{\n              return (500,\"密码错误\");\n          }\n      }\n}",
  "sourcePath": "/Users/jackie/workspace/scau_file_system/contracts/FileSystem.sol",
  "compiler": {
    "name": "solc",
    "version": "0.5.0+commit.1d4f565a.Emscripten.clang"
  },
  "schemaVersion": "3.0.1",
  "updatedAt": "2019-02-12T14:35:40.663Z",
  "devdoc": {
    "methods": {}
  },
  "userdoc": {
    "methods": {}
  }
}